{
  "_format": "hh-sol-artifact-1",
  "contractName": "AlxionDeployer",
  "sourceName": "contracts/AlxionTokenDeployer.sol",
  "abi": [
    {
      "inputs": [
        {
          "internalType": "address",
          "name": "_botAddress",
          "type": "address"
        }
      ],
      "stateMutability": "nonpayable",
      "type": "constructor"
    },
    {
      "inputs": [],
      "name": "AlxionDeployer__AddressCannotBeZero",
      "type": "error"
    },
    {
      "inputs": [],
      "name": "AlxionDeployer__HashAlreadyUsed",
      "type": "error"
    },
    {
      "inputs": [],
      "name": "AlxionDeployer__InsufficientPoints",
      "type": "error"
    },
    {
      "inputs": [],
      "name": "AlxionDeployer__InvalidSignature",
      "type": "error"
    },
    {
      "inputs": [],
      "name": "AlxionDeployer__Unauthorized",
      "type": "error"
    },
    {
      "anonymous": false,
      "inputs": [
        {
          "indexed": true,
          "internalType": "address",
          "name": "oldBotAddress",
          "type": "address"
        },
        {
          "indexed": true,
          "internalType": "address",
          "name": "newBotAddress",
          "type": "address"
        }
      ],
      "name": "BotAddressUpdated",
      "type": "event"
    },
    {
      "anonymous": false,
      "inputs": [
        {
          "indexed": true,
          "internalType": "address",
          "name": "user",
          "type": "address"
        },
        {
          "indexed": false,
          "internalType": "uint256",
          "name": "points",
          "type": "uint256"
        }
      ],
      "name": "PointsAdded",
      "type": "event"
    },
    {
      "anonymous": false,
      "inputs": [
        {
          "indexed": true,
          "internalType": "address",
          "name": "user",
          "type": "address"
        },
        {
          "indexed": false,
          "internalType": "uint256",
          "name": "points",
          "type": "uint256"
        }
      ],
      "name": "PointsRedeemed",
      "type": "event"
    },
    {
      "inputs": [],
      "name": "POINT_BASIS",
      "outputs": [
        {
          "internalType": "uint256",
          "name": "",
          "type": "uint256"
        }
      ],
      "stateMutability": "view",
      "type": "function"
    },
    {
      "inputs": [
        {
          "internalType": "uint256",
          "name": "pointToAdd",
          "type": "uint256"
        },
        {
          "internalType": "bytes",
          "name": "signature",
          "type": "bytes"
        }
      ],
      "name": "addPoints",
      "outputs": [],
      "stateMutability": "nonpayable",
      "type": "function"
    },
    {
      "inputs": [],
      "name": "alxionToken",
      "outputs": [
        {
          "internalType": "contract AlxionToken",
          "name": "",
          "type": "address"
        }
      ],
      "stateMutability": "view",
      "type": "function"
    },
    {
      "inputs": [],
      "name": "botAddress",
      "outputs": [
        {
          "internalType": "address",
          "name": "",
          "type": "address"
        }
      ],
      "stateMutability": "view",
      "type": "function"
    },
    {
      "inputs": [
        {
          "internalType": "uint256",
          "name": "point",
          "type": "uint256"
        }
      ],
      "name": "redeemCode",
      "outputs": [
        {
          "internalType": "bool",
          "name": "",
          "type": "bool"
        }
      ],
      "stateMutability": "nonpayable",
      "type": "function"
    },
    {
      "inputs": [
        {
          "internalType": "address",
          "name": "_newBotAddress",
          "type": "address"
        }
      ],
      "name": "updateBotAddress",
      "outputs": [],
      "stateMutability": "nonpayable",
      "type": "function"
    },
    {
      "inputs": [
        {
          "internalType": "bytes32",
          "name": "",
          "type": "bytes32"
        }
      ],
      "name": "usedHashes",
      "outputs": [
        {
          "internalType": "bool",
          "name": "",
          "type": "bool"
        }
      ],
      "stateMutability": "view",
      "type": "function"
    },
    {
      "inputs": [
        {
          "internalType": "address",
          "name": "",
          "type": "address"
        }
      ],
      "name": "userNonce",
      "outputs": [
        {
          "internalType": "uint256",
          "name": "",
          "type": "uint256"
        }
      ],
      "stateMutability": "view",
      "type": "function"
    },
    {
      "inputs": [
        {
          "internalType": "address",
          "name": "",
          "type": "address"
        }
      ],
      "name": "userPoints",
      "outputs": [
        {
          "internalType": "uint256",
          "name": "points",
          "type": "uint256"
        },
        {
          "internalType": "uint256",
          "name": "updatedTimeStamp",
          "type": "uint256"
        },
        {
          "internalType": "uint256",
          "name": "createdTimeStamp",
          "type": "uint256"
        },
        {
          "internalType": "address",
          "name": "user",
          "type": "address"
        }
      ],
      "stateMutability": "view",
      "type": "function"
    }
  ],
  "bytecode": "0x60a060405234801561001057600080fd5b50604051612b50380380612b50833981810160405281019061003291906101ab565b600073ffffffffffffffffffffffffffffffffffffffff168173ffffffffffffffffffffffffffffffffffffffff1603610098576040517fe01a449f00000000000000000000000000000000000000000000000000000000815260040160405180910390fd5b6040516100a49061013b565b604051809103906000f0801580156100c0573d6000803e3d6000fd5b5073ffffffffffffffffffffffffffffffffffffffff1660808173ffffffffffffffffffffffffffffffffffffffff168152505080600360006101000a81548173ffffffffffffffffffffffffffffffffffffffff021916908373ffffffffffffffffffffffffffffffffffffffff160217905550506101d8565b6113fb8061175583390190565b600080fd5b600073ffffffffffffffffffffffffffffffffffffffff82169050919050565b60006101788261014d565b9050919050565b6101888161016d565b811461019357600080fd5b50565b6000815190506101a58161017f565b92915050565b6000602082840312156101c1576101c0610148565b5b60006101cf84828501610196565b91505092915050565b60805161155461020160003960008181610232015281816108ee015261092b01526115546000f3fe608060405234801561001057600080fd5b50600436106100935760003560e01c8063a3f49ffe11610066578063a3f49ffe14610122578063ae0d1b811461013e578063aef18bf71461015a578063f50ddbc71461018a578063fd1b6115146101bd57610093565b80632e04b8e7146100985780634bf4f423146100c8578063534b0329146100e65780637c79b40014610104575b600080fd5b6100b260048036038101906100ad9190610bee565b6101ed565b6040516100bf9190610c34565b60405180910390f35b6100d0610205565b6040516100dd9190610c5e565b60405180910390f35b6100ee61022b565b6040516100fb9190610c34565b60405180910390f35b61010c610230565b6040516101199190610cd8565b60405180910390f35b61013c60048036038101906101379190610e65565b610254565b005b61015860048036038101906101539190610bee565b6105f4565b005b610174600480360381019061016f9190610ef7565b6107a7565b6040516101819190610f3f565b60405180910390f35b6101a4600480360381019061019f9190610bee565b6107c7565b6040516101b49493929190610f5a565b60405180910390f35b6101d760048036038101906101d29190610f9f565b610817565b6040516101e49190610f3f565b60405180910390f35b60026020528060005260406000206000915090505481565b600360009054906101000a900473ffffffffffffffffffffffffffffffffffffffff1681565b602381565b7f000000000000000000000000000000000000000000000000000000000000000081565b60003383600260003373ffffffffffffffffffffffffffffffffffffffff1673ffffffffffffffffffffffffffffffffffffffff168152602001908152602001600020546040516020016102aa93929190611035565b60405160208183030381529060405280519060200120905060006102cd82610a75565b90506001600083815260200190815260200160002060009054906101000a900460ff1615610327576040517f2e65dd9d00000000000000000000000000000000000000000000000000000000815260040160405180910390fd5b600360009054906101000a900473ffffffffffffffffffffffffffffffffffffffff1673ffffffffffffffffffffffffffffffffffffffff1661036a8285610aa5565b73ffffffffffffffffffffffffffffffffffffffff16146103b7576040517f88a6c3ad00000000000000000000000000000000000000000000000000000000815260040160405180910390fd5b600260003373ffffffffffffffffffffffffffffffffffffffff1673ffffffffffffffffffffffffffffffffffffffff1681526020019081526020016000206000815480929190610407906110a1565b9190505550600180600084815260200190815260200160002060006101000a81548160ff021916908315150217905550600060238561044691906110e9565b905060008060003373ffffffffffffffffffffffffffffffffffffffff1673ffffffffffffffffffffffffffffffffffffffff16815260200190815260200160002090506000816000015411156104c057818160000160008282546104ab919061112b565b9250508190555042816001018190555061059e565b60405180608001604052808381526020014281526020014281526020013373ffffffffffffffffffffffffffffffffffffffff168152506000803373ffffffffffffffffffffffffffffffffffffffff1673ffffffffffffffffffffffffffffffffffffffff16815260200190815260200160002060008201518160000155602082015181600101556040820151816002015560608201518160030160006101000a81548173ffffffffffffffffffffffffffffffffffffffff021916908373ffffffffffffffffffffffffffffffffffffffff1602179055509050505b3373ffffffffffffffffffffffffffffffffffffffff167f0fe6fcb45adaaa54f7e3491f6a7964049817f1e437f33587e634a4629fbcf3a6836040516105e49190610c34565b60405180910390a2505050505050565b600360009054906101000a900473ffffffffffffffffffffffffffffffffffffffff1673ffffffffffffffffffffffffffffffffffffffff163373ffffffffffffffffffffffffffffffffffffffff161461067b576040517fe01a449f00000000000000000000000000000000000000000000000000000000815260040160405180910390fd5b600073ffffffffffffffffffffffffffffffffffffffff168173ffffffffffffffffffffffffffffffffffffffff16036106e1576040517f1084ddb200000000000000000000000000000000000000000000000000000000815260040160405180910390fd5b6000600360009054906101000a900473ffffffffffffffffffffffffffffffffffffffff16905081600360006101000a81548173ffffffffffffffffffffffffffffffffffffffff021916908373ffffffffffffffffffffffffffffffffffffffff1602179055508173ffffffffffffffffffffffffffffffffffffffff168173ffffffffffffffffffffffffffffffffffffffff167f8f92dafbdfc7fad31b0a85cc9cc0f7121bd9ec12a37640055a866d43bb0e981a60405160405180910390a35050565b60016020528060005260406000206000915054906101000a900460ff1681565b60006020528060005260406000206000915090508060000154908060010154908060020154908060030160009054906101000a900473ffffffffffffffffffffffffffffffffffffffff16905084565b6000816000803373ffffffffffffffffffffffffffffffffffffffff1673ffffffffffffffffffffffffffffffffffffffff168152602001908152602001600020600001541015610894576040517fa042f7d700000000000000000000000000000000000000000000000000000000815260040160405180910390fd5b816000803373ffffffffffffffffffffffffffffffffffffffff1673ffffffffffffffffffffffffffffffffffffffff16815260200190815260200160002060000160008282546108e5919061115f565b925050819055507f000000000000000000000000000000000000000000000000000000000000000073ffffffffffffffffffffffffffffffffffffffff166340c10f19337f000000000000000000000000000000000000000000000000000000000000000073ffffffffffffffffffffffffffffffffffffffff1663313ce5676040518163ffffffff1660e01b8152600401602060405180830381865afa158015610994573d6000803e3d6000fd5b505050506040513d601f19601f820116820180604052508101906109b891906111cc565b600a6109c4919061132c565b856109cf91906110e9565b6040518363ffffffff1660e01b81526004016109ec929190611377565b600060405180830381600087803b158015610a0657600080fd5b505af1158015610a1a573d6000803e3d6000fd5b505050503373ffffffffffffffffffffffffffffffffffffffff167fc37df5d14f305277c1289e9a188a097cda6684189c95f785feb056cb77a8c91083604051610a649190610c34565b60405180910390a260019050919050565b600081604051602001610a889190611418565b604051602081830303815290604052805190602001209050919050565b600080600080610ab485610b14565b92509250925060018682858560405160008152602001604052604051610add949392919061145c565b6020604051602081039080840390855afa158015610aff573d6000803e3d6000fd5b50505060206040510351935050505092915050565b60008060006041845114610b5d576040517f08c379a0000000000000000000000000000000000000000000000000000000008152600401610b54906114fe565b60405180910390fd5b6020840151925060408401519150606084015160001a90509193909250565b6000604051905090565b600080fd5b600080fd5b600073ffffffffffffffffffffffffffffffffffffffff82169050919050565b6000610bbb82610b90565b9050919050565b610bcb81610bb0565b8114610bd657600080fd5b50565b600081359050610be881610bc2565b92915050565b600060208284031215610c0457610c03610b86565b5b6000610c1284828501610bd9565b91505092915050565b6000819050919050565b610c2e81610c1b565b82525050565b6000602082019050610c496000830184610c25565b92915050565b610c5881610bb0565b82525050565b6000602082019050610c736000830184610c4f565b92915050565b6000819050919050565b6000610c9e610c99610c9484610b90565b610c79565b610b90565b9050919050565b6000610cb082610c83565b9050919050565b6000610cc282610ca5565b9050919050565b610cd281610cb7565b82525050565b6000602082019050610ced6000830184610cc9565b92915050565b610cfc81610c1b565b8114610d0757600080fd5b50565b600081359050610d1981610cf3565b92915050565b600080fd5b600080fd5b6000601f19601f8301169050919050565b7f4e487b7100000000000000000000000000000000000000000000000000000000600052604160045260246000fd5b610d7282610d29565b810181811067ffffffffffffffff82111715610d9157610d90610d3a565b5b80604052505050565b6000610da4610b7c565b9050610db08282610d69565b919050565b600067ffffffffffffffff821115610dd057610dcf610d3a565b5b610dd982610d29565b9050602081019050919050565b82818337600083830152505050565b6000610e08610e0384610db5565b610d9a565b905082815260208101848484011115610e2457610e23610d24565b5b610e2f848285610de6565b509392505050565b600082601f830112610e4c57610e4b610d1f565b5b8135610e5c848260208601610df5565b91505092915050565b60008060408385031215610e7c57610e7b610b86565b5b6000610e8a85828601610d0a565b925050602083013567ffffffffffffffff811115610eab57610eaa610b8b565b5b610eb785828601610e37565b9150509250929050565b6000819050919050565b610ed481610ec1565b8114610edf57600080fd5b50565b600081359050610ef181610ecb565b92915050565b600060208284031215610f0d57610f0c610b86565b5b6000610f1b84828501610ee2565b91505092915050565b60008115159050919050565b610f3981610f24565b82525050565b6000602082019050610f546000830184610f30565b92915050565b6000608082019050610f6f6000830187610c25565b610f7c6020830186610c25565b610f896040830185610c25565b610f966060830184610c4f565b95945050505050565b600060208284031215610fb557610fb4610b86565b5b6000610fc384828501610d0a565b91505092915050565b60008160601b9050919050565b6000610fe482610fcc565b9050919050565b6000610ff682610fd9565b9050919050565b61100e61100982610bb0565b610feb565b82525050565b6000819050919050565b61102f61102a82610c1b565b611014565b82525050565b60006110418286610ffd565b601482019150611051828561101e565b602082019150611061828461101e565b602082019150819050949350505050565b7f4e487b7100000000000000000000000000000000000000000000000000000000600052601160045260246000fd5b60006110ac82610c1b565b91507fffffffffffffffffffffffffffffffffffffffffffffffffffffffffffffffff82036110de576110dd611072565b5b600182019050919050565b60006110f482610c1b565b91506110ff83610c1b565b925082820261110d81610c1b565b9150828204841483151761112457611123611072565b5b5092915050565b600061113682610c1b565b915061114183610c1b565b925082820190508082111561115957611158611072565b5b92915050565b600061116a82610c1b565b915061117583610c1b565b925082820390508181111561118d5761118c611072565b5b92915050565b600060ff82169050919050565b6111a981611193565b81146111b457600080fd5b50565b6000815190506111c6816111a0565b92915050565b6000602082840312156111e2576111e1610b86565b5b60006111f0848285016111b7565b91505092915050565b60008160011c9050919050565b6000808291508390505b60018511156112505780860481111561122c5761122b611072565b5b600185161561123b5780820291505b8081029050611249856111f9565b9450611210565b94509492505050565b6000826112695760019050611325565b816112775760009050611325565b816001811461128d5760028114611297576112c6565b6001915050611325565b60ff8411156112a9576112a8611072565b5b8360020a9150848211156112c0576112bf611072565b5b50611325565b5060208310610133831016604e8410600b84101617156112fb5782820a9050838111156112f6576112f5611072565b5b611325565b6113088484846001611206565b9250905081840481111561131f5761131e611072565b5b81810290505b9392505050565b600061133782610c1b565b915061134283611193565b925061136f7fffffffffffffffffffffffffffffffffffffffffffffffffffffffffffffffff8484611259565b905092915050565b600060408201905061138c6000830185610c4f565b6113996020830184610c25565b9392505050565b600081905092915050565b7f19457468657265756d205369676e6564204d6573736167653a0a333200000000600082015250565b60006113e1601c836113a0565b91506113ec826113ab565b601c82019050919050565b6000819050919050565b61141261140d82610ec1565b6113f7565b82525050565b6000611423826113d4565b915061142f8284611401565b60208201915081905092915050565b61144781610ec1565b82525050565b61145681611193565b82525050565b6000608082019050611471600083018761143e565b61147e602083018661144d565b61148b604083018561143e565b611498606083018461143e565b95945050505050565b600082825260208201905092915050565b7f496e76616c6964207369676e6174757265206c656e6774680000000000000000600082015250565b60006114e86018836114a1565b91506114f3826114b2565b602082019050919050565b60006020820190508181036000830152611517816114db565b905091905056fea2646970667358221220154d42ae1016451390d37a8578a0eecb2a9f864e9db38621644e56677393733664736f6c634300081c003360a060405234801561001057600080fd5b506040518060400160405280600b81526020017f416c78696f6e546f6b656e0000000000000000000000000000000000000000008152506040518060400160405280600381526020017f4158540000000000000000000000000000000000000000000000000000000000815250816003908161008c9190610328565b50806004908161009c9190610328565b5050503373ffffffffffffffffffffffffffffffffffffffff1660808173ffffffffffffffffffffffffffffffffffffffff16815250506103fa565b600081519050919050565b7f4e487b7100000000000000000000000000000000000000000000000000000000600052604160045260246000fd5b7f4e487b7100000000000000000000000000000000000000000000000000000000600052602260045260246000fd5b6000600282049050600182168061015957607f821691505b60208210810361016c5761016b610112565b5b50919050565b60008190508160005260206000209050919050565b60006020601f8301049050919050565b600082821b905092915050565b6000600883026101d47fffffffffffffffffffffffffffffffffffffffffffffffffffffffffffffffff82610197565b6101de8683610197565b95508019841693508086168417925050509392505050565b6000819050919050565b6000819050919050565b600061022561022061021b846101f6565b610200565b6101f6565b9050919050565b6000819050919050565b61023f8361020a565b61025361024b8261022c565b8484546101a4565b825550505050565b600090565b61026861025b565b610273818484610236565b505050565b5b818110156102975761028c600082610260565b600181019050610279565b5050565b601f8211156102dc576102ad81610172565b6102b684610187565b810160208510156102c5578190505b6102d96102d185610187565b830182610278565b50505b505050565b600082821c905092915050565b60006102ff600019846008026102e1565b1980831691505092915050565b600061031883836102ee565b9150826002028217905092915050565b610331826100d8565b67ffffffffffffffff81111561034a576103496100e3565b5b6103548254610141565b61035f82828561029b565b600060209050601f8311600181146103925760008415610380578287015190505b61038a858261030c565b8655506103f2565b601f1984166103a086610172565b60005b828110156103c8578489015182556001820191506020850194506020810190506103a3565b868310156103e557848901516103e1601f8916826102ee565b8355505b6001600288020188555050505b505050505050565b608051610fdf61041c60003960008181610307015261036d0152610fdf6000f3fe608060405234801561001057600080fd5b50600436106100a95760003560e01c8063313ce56711610071578063313ce5671461016857806340c10f191461018657806370a08231146101a257806395d89b41146101d2578063a9059cbb146101f0578063dd62ed3e14610220576100a9565b806306fdde03146100ae578063095ea7b3146100cc578063117803e3146100fc57806318160ddd1461011a57806323b872dd14610138575b600080fd5b6100b6610250565b6040516100c39190610c33565b60405180910390f35b6100e660048036038101906100e19190610cee565b6102e2565b6040516100f39190610d49565b60405180910390f35b610104610305565b6040516101119190610d73565b60405180910390f35b610122610329565b60405161012f9190610d9d565b60405180910390f35b610152600480360381019061014d9190610db8565b610333565b60405161015f9190610d49565b60405180910390f35b610170610362565b60405161017d9190610e27565b60405180910390f35b6101a0600480360381019061019b9190610cee565b61036b565b005b6101bc60048036038101906101b79190610e42565b6103fe565b6040516101c99190610d9d565b60405180910390f35b6101da610446565b6040516101e79190610c33565b60405180910390f35b61020a60048036038101906102059190610cee565b6104d8565b6040516102179190610d49565b60405180910390f35b61023a60048036038101906102359190610e6f565b6104fb565b6040516102479190610d9d565b60405180910390f35b60606003805461025f90610ede565b80601f016020809104026020016040519081016040528092919081815260200182805461028b90610ede565b80156102d85780601f106102ad576101008083540402835291602001916102d8565b820191906000526020600020905b8154815290600101906020018083116102bb57829003601f168201915b5050505050905090565b6000806102ed610582565b90506102fa81858561058a565b600191505092915050565b7f000000000000000000000000000000000000000000000000000000000000000081565b6000600254905090565b60008061033e610582565b905061034b85828561059c565b610356858585610631565b60019150509392505050565b60006012905090565b7f000000000000000000000000000000000000000000000000000000000000000073ffffffffffffffffffffffffffffffffffffffff163373ffffffffffffffffffffffffffffffffffffffff16146103f0576040517fbc16fefb00000000000000000000000000000000000000000000000000000000815260040160405180910390fd5b6103fa8282610725565b5050565b60008060008373ffffffffffffffffffffffffffffffffffffffff1673ffffffffffffffffffffffffffffffffffffffff168152602001908152602001600020549050919050565b60606004805461045590610ede565b80601f016020809104026020016040519081016040528092919081815260200182805461048190610ede565b80156104ce5780601f106104a3576101008083540402835291602001916104ce565b820191906000526020600020905b8154815290600101906020018083116104b157829003601f168201915b5050505050905090565b6000806104e3610582565b90506104f0818585610631565b600191505092915050565b6000600160008473ffffffffffffffffffffffffffffffffffffffff1673ffffffffffffffffffffffffffffffffffffffff16815260200190815260200160002060008373ffffffffffffffffffffffffffffffffffffffff1673ffffffffffffffffffffffffffffffffffffffff16815260200190815260200160002054905092915050565b600033905090565b61059783838360016107a7565b505050565b60006105a884846104fb565b90507fffffffffffffffffffffffffffffffffffffffffffffffffffffffffffffffff81101561062b578181101561061b578281836040517ffb8f41b200000000000000000000000000000000000000000000000000000000815260040161061293929190610f0f565b60405180910390fd5b61062a848484840360006107a7565b5b50505050565b600073ffffffffffffffffffffffffffffffffffffffff168373ffffffffffffffffffffffffffffffffffffffff16036106a35760006040517f96c6fd1e00000000000000000000000000000000000000000000000000000000815260040161069a9190610d73565b60405180910390fd5b600073ffffffffffffffffffffffffffffffffffffffff168273ffffffffffffffffffffffffffffffffffffffff16036107155760006040517fec442f0500000000000000000000000000000000000000000000000000000000815260040161070c9190610d73565b60405180910390fd5b61072083838361097e565b505050565b600073ffffffffffffffffffffffffffffffffffffffff168273ffffffffffffffffffffffffffffffffffffffff16036107975760006040517fec442f0500000000000000000000000000000000000000000000000000000000815260040161078e9190610d73565b60405180910390fd5b6107a36000838361097e565b5050565b600073ffffffffffffffffffffffffffffffffffffffff168473ffffffffffffffffffffffffffffffffffffffff16036108195760006040517fe602df050000000000000000000000000000000000000000000000000000000081526004016108109190610d73565b60405180910390fd5b600073ffffffffffffffffffffffffffffffffffffffff168373ffffffffffffffffffffffffffffffffffffffff160361088b5760006040517f94280d620000000000000000000000000000000000000000000000000000000081526004016108829190610d73565b60405180910390fd5b81600160008673ffffffffffffffffffffffffffffffffffffffff1673ffffffffffffffffffffffffffffffffffffffff16815260200190815260200160002060008573ffffffffffffffffffffffffffffffffffffffff1673ffffffffffffffffffffffffffffffffffffffff168152602001908152602001600020819055508015610978578273ffffffffffffffffffffffffffffffffffffffff168473ffffffffffffffffffffffffffffffffffffffff167f8c5be1e5ebec7d5bd14f71427d1e84f3dd0314c0f7b2291e5b200ac8c7c3b9258460405161096f9190610d9d565b60405180910390a35b50505050565b600073ffffffffffffffffffffffffffffffffffffffff168373ffffffffffffffffffffffffffffffffffffffff16036109d05780600260008282546109c49190610f75565b92505081905550610aa3565b60008060008573ffffffffffffffffffffffffffffffffffffffff1673ffffffffffffffffffffffffffffffffffffffff16815260200190815260200160002054905081811015610a5c578381836040517fe450d38c000000000000000000000000000000000000000000000000000000008152600401610a5393929190610f0f565b60405180910390fd5b8181036000808673ffffffffffffffffffffffffffffffffffffffff1673ffffffffffffffffffffffffffffffffffffffff16815260200190815260200160002081905550505b600073ffffffffffffffffffffffffffffffffffffffff168273ffffffffffffffffffffffffffffffffffffffff1603610aec5780600260008282540392505081905550610b39565b806000808473ffffffffffffffffffffffffffffffffffffffff1673ffffffffffffffffffffffffffffffffffffffff168152602001908152602001600020600082825401925050819055505b8173ffffffffffffffffffffffffffffffffffffffff168373ffffffffffffffffffffffffffffffffffffffff167fddf252ad1be2c89b69c2b068fc378daa952ba7f163c4a11628f55a4df523b3ef83604051610b969190610d9d565b60405180910390a3505050565b600081519050919050565b600082825260208201905092915050565b60005b83811015610bdd578082015181840152602081019050610bc2565b60008484015250505050565b6000601f19601f8301169050919050565b6000610c0582610ba3565b610c0f8185610bae565b9350610c1f818560208601610bbf565b610c2881610be9565b840191505092915050565b60006020820190508181036000830152610c4d8184610bfa565b905092915050565b600080fd5b600073ffffffffffffffffffffffffffffffffffffffff82169050919050565b6000610c8582610c5a565b9050919050565b610c9581610c7a565b8114610ca057600080fd5b50565b600081359050610cb281610c8c565b92915050565b6000819050919050565b610ccb81610cb8565b8114610cd657600080fd5b50565b600081359050610ce881610cc2565b92915050565b60008060408385031215610d0557610d04610c55565b5b6000610d1385828601610ca3565b9250506020610d2485828601610cd9565b9150509250929050565b60008115159050919050565b610d4381610d2e565b82525050565b6000602082019050610d5e6000830184610d3a565b92915050565b610d6d81610c7a565b82525050565b6000602082019050610d886000830184610d64565b92915050565b610d9781610cb8565b82525050565b6000602082019050610db26000830184610d8e565b92915050565b600080600060608486031215610dd157610dd0610c55565b5b6000610ddf86828701610ca3565b9350506020610df086828701610ca3565b9250506040610e0186828701610cd9565b9150509250925092565b600060ff82169050919050565b610e2181610e0b565b82525050565b6000602082019050610e3c6000830184610e18565b92915050565b600060208284031215610e5857610e57610c55565b5b6000610e6684828501610ca3565b91505092915050565b60008060408385031215610e8657610e85610c55565b5b6000610e9485828601610ca3565b9250506020610ea585828601610ca3565b9150509250929050565b7f4e487b7100000000000000000000000000000000000000000000000000000000600052602260045260246000fd5b60006002820490506001821680610ef657607f821691505b602082108103610f0957610f08610eaf565b5b50919050565b6000606082019050610f246000830186610d64565b610f316020830185610d8e565b610f3e6040830184610d8e565b949350505050565b7f4e487b7100000000000000000000000000000000000000000000000000000000600052601160045260246000fd5b6000610f8082610cb8565b9150610f8b83610cb8565b9250828201905080821115610fa357610fa2610f46565b5b9291505056fea2646970667358221220a815374a7a6531955e06b40cf33e608759babe28ac02f55bde3cdfe2836d701064736f6c634300081c0033",
  "linkReferences": {},
  "deployedLinkReferences": {}
}